{
  "contractName": "TodoList",
  "abi": [
    {
      "constant": true,
      "inputs": [
        {
          "name": "",
          "type": "uint256"
        }
      ],
      "name": "tasks",
      "outputs": [
        {
          "name": "id",
          "type": "uint256"
        },
        {
          "name": "content",
          "type": "string"
        },
        {
          "name": "completed",
          "type": "bool"
        }
      ],
      "payable": false,
      "stateMutability": "view",
      "type": "function",
      "signature": "0x8d977672"
    },
    {
      "constant": true,
      "inputs": [],
      "name": "taskCount",
      "outputs": [
        {
          "name": "",
          "type": "uint256"
        }
      ],
      "payable": false,
      "stateMutability": "view",
      "type": "function",
      "signature": "0xb6cb58a5"
    },
    {
      "inputs": [],
      "payable": false,
      "stateMutability": "nonpayable",
      "type": "constructor",
      "signature": "constructor"
    },
    {
      "constant": false,
      "inputs": [
        {
          "name": "_content",
          "type": "string"
        }
      ],
      "name": "createTask",
      "outputs": [],
      "payable": false,
      "stateMutability": "nonpayable",
      "type": "function",
      "signature": "0x111002aa"
    }
  ],
  "bytecode": "0x60806040526000805534801561001457600080fd5b5060408051808201909152601b81527f437265617465206120626c6f636b636861696e2070726f6a6563740000000000602082015261005b906401000000006100d4810204565b6100cf606060405190810160405280603481526020017f496d706c656d656e7420626c6f636b636861696e20696e20616e20616374756181526020017f6c20656e74657270726973652070726f6a6563740000000000000000000000008152506100d4640100000000026401000000009004565b6101db565b600080546001908101808355604080516060810182528281526020808201878152828401879052938652848152919094208451815591518051929361012193908501929190910190610140565b50604091909101516002909101805460ff191691151591909117905550565b828054600181600116156101000203166002900490600052602060002090601f016020900481019282601f1061018157805160ff19168380011785556101ae565b828001600101855582156101ae579182015b828111156101ae578251825591602001919060010190610193565b506101ba9291506101be565b5090565b6101d891905b808211156101ba57600081556001016101c4565b90565b6103d3806101ea6000396000f3fe6080604052600436106100565763ffffffff7c0100000000000000000000000000000000000000000000000000000000600035041663111002aa811461005b5780638d97767214610110578063b6cb58a5146101c4575b600080fd5b34801561006757600080fd5b5061010e6004803603602081101561007e57600080fd5b81019060208101813564010000000081111561009957600080fd5b8201836020820111156100ab57600080fd5b803590602001918460018302840111640100000000831117156100cd57600080fd5b91908080601f0160208091040260200160405190810160405280939291908181526020018383808284376000920191909152509295506101eb945050505050565b005b34801561011c57600080fd5b5061013a6004803603602081101561013357600080fd5b5035610257565b604051808481526020018060200183151515158152602001828103825284818151815260200191508051906020019080838360005b8381101561018757818101518382015260200161016f565b50505050905090810190601f1680156101b45780820380516001836020036101000a031916815260200191505b5094505050505060405180910390f35b3480156101d057600080fd5b506101d9610306565b60408051918252519081900360200190f35b60008054600190810180835560408051606081018252828152602080820187815282840187905293865284815291909420845181559151805192936102389390850192919091019061030c565b50604091909101516002909101805460ff191691151591909117905550565b600160208181526000928352604092839020805481840180548651600296821615610100026000190190911695909504601f810185900485028601850190965285855290949193929091908301828280156102f35780601f106102c8576101008083540402835291602001916102f3565b820191906000526020600020905b8154815290600101906020018083116102d657829003601f168201915b5050506002909301549192505060ff1683565b60005481565b828054600181600116156101000203166002900490600052602060002090601f016020900481019282601f1061034d57805160ff191683800117855561037a565b8280016001018555821561037a579182015b8281111561037a57825182559160200191906001019061035f565b5061038692915061038a565b5090565b6103a491905b808211156103865760008155600101610390565b9056fea165627a7a72305820c0c1eb063f59221756f2892f5a9ac609df29821a34520f66f7cc5d9869704df80029",
  "source": "pragma solidity ^0.5.0;\n\ncontract TodoList{\n\n   //state variable \n   uint public taskCount = 0;\n\n   struct Task {\n       uint id;\n       string content;\n       bool completed;\n   }\n\n   mapping(uint => Task) public tasks;\n\n   function createTask(string memory _content) public{\n     taskCount++;\n     tasks[taskCount]=Task(taskCount, _content,false);\n   }\n\n   constructor() public {\n       createTask(\"Create a blockchain project\");\n       createTask(\"Implement blockchain in an actual enterprise project\");\n   }\n\n}",
  "sourcePath": "/Users/shivam.g/Desktop/blockchain_todoList/contracts/TodoList.sol",
  "compiler": {
    "name": "solc",
    "version": "0.5.0+commit.1d4f565a.Emscripten.clang"
  },
  "schemaVersion": "3.0.1",
  "updatedAt": "2021-04-18T15:09:37.602Z",
  "devdoc": {
    "methods": {}
  },
  "userdoc": {
    "methods": {}
  }
}